:100000000C943A020C9457020C9457020C94570229
:100010000C9457020C9491020C9457020C945702C2
:100020000C9457020C9457020C9457020C945702EC
:100030000C9457020C9457020C9457020C945702DC
:100040000C94D20C0C9457020C9457020C94570247
:100050000C94F70B0C94B50B0C9457020C945702AC
:100060000C9457020C9457020C9457020C945702AC
:100070000C9457020C9457020C94570250726573FB
:1000800073206120627574746F6E206F7220277305
:10009000272F27532720746F207374617274206197
:1000A000206E65772067616D650047414D45204FA3
:1000B0005645520043535345323031302F3732309A
:1000C000312050726F6A65637420627920416E64DA
:1000D0007265772057696C736F6E202D203438322B
:1000E000383034313100205C24242424242424207A
:1000F000205C24242020205C24242020205C242434
:10010000202020202020205C2424202020205C246B
:1001100024242424242424205C242424242424246B
:100120002420205C24242424242420205C24242033
:1001300020205C2424205C242424242424205C24E7
:1001400024202020202020007C2024242020202067
:1001500024247C20242420207C20242420207C2073
:1001600024242020202020207C2024242020207CC7
:1001700020242420202020205C7C202424202020D7
:1001800020205C205C24242020202024247C202487
:100190002420207C2024247C2020202424205C7CFB
:1001A000202424202020202020007C2024245F5F85
:1001B0002F2024247C20242420207C202424202060
:1001C0007C2024242020202020207C202424202067
:1001D000207C2024245F5F5F5F5F207C2024245FDD
:1001E0005F5F5F5F207C20205C5F5F7C2024247C3D
:1001F00020242420207C202424205F7C2024245FB1
:10020000207C202424202020202020007C20242446
:1002100024242424245C7C20242424242424242412
:1002200020207C2024242020202020207C20242406
:100230002020207C2024242020202020207C2024FA
:1002400024242424202020205F5C2424242424240B
:100250005C7C20242424242424242420207C202486
:100260002420207C202424242424242420007C20D6
:1002700024242020202024247C202424202020200A
:10028000242420207C2024242020202020207C20A6
:1002900024242020207C2024242020202020207C96
:1002A00020242420205C202020205C2424202020C6
:1002B000205C207C20242420202020242420207C3A
:1002C00020242420207C20242420202020242400DA
:1002D0007C2024245F5F2F2024247C2024245F5F43
:1002E0007C20242420207C20242420202020202046
:1002F0007C2024242020207C202424202020202036
:10030000207C2024245F5F202020207C2024245F68
:100310005F5F5C24247C2024245F5F7C20242420D5
:10032000207C20242420207C2024245F5F2F202474
:1003300024007C20242424242424245C7C202024C5
:1003400024242424245C5C24242424242424242001
:100350005C24242424242424247C202424202020DD
:100360002020207C2024242424242424247C2020B5
:100370002424242424245C7C20242420207C202465
:1003800024205C2424242424247C202424242424A5
:1003900024245C007C202020202020205C20202F92
:1003A0002020202020205C7C2020202020202020B5
:1003B0005C7C20202020202020205C7C20205C20D1
:1003C00020202020207C20202020202020205C2095
:1003D0002F2020202020205C207C20205C20207CDE
:1003E00020205C7C2020202020205C7C20202020DD
:1003F0002020205C2000205F5F5F5F5F5F5F202028
:1004000020205F5F5F5F5F5F20205F5F5F5F5F5FF8
:100410005F5F20205F5F5F5F5F5F5F5F20205F5FE8
:1004200020202020202020205F5F5F5F5F5F5F5FD4
:100430002020205F5F5F5F5F5F2020205F5F2020C4
:1004400020205F5F20205F5F5F5F5F5F20205F5F36
:100450005F5F5F5F5F2020001B5B3F32356C001BDE
:100460005B25646D001B5B324A001B5B25643B25EA
:100470006448000011241FBECFEFD8E0DEBFCDBF1F
:1004800012E0A0E0B1E0ECEFF1E202C005900D92C5
:10049000AE3CB107D9F724E0AEECB2E001C01D924A
:1004A000A837B207E1F70E94F10A0C94FC100C94F3
:1004B0000000E8E6F0E08081826080838BB3826098
:1004C0008BBBECE6F0E080818F6080831092CE02DF
:1004D00008958091CE02181614F58091CF026FB75F
:1004E000F89491E009C0F901E153FD4F4081F90111
:1004F000E253FD4F40839F5F292F30E04091CE02B1
:10050000042E000C550B241735076CF39091CE0286
:1005100091509093CE0266231CF4789408958FEF47
:1005200008951F920F920FB60F9211242F933F93AD
:100530004F938F939F93EF93FF9343B14F7080E05E
:1005400026C09091CE0294300CF5242F30E0082E76
:1005500002C0359527950A94E2F720FF17C0209135
:10056000D30230E0082E02C0359527950A94E2F7B1
:1005700020FD0CC0E091CE0291E09E0F9093CE0240
:100580000E2E000CFF0BE153FD4F80838F5F8430F4
:10059000C0F24093D302FF91EF919F918F914F91C1
:1005A0003F912F910F900FBE0F901F9018951F93A2
:1005B000CF93DF93CDB7DEB728970FB6F894DEBFA1
:1005C0000FBECDBF0E94610910E02DC0E12FF0E009
:1005D000EF54FE4F908180E01DC0282F30E0492F5E
:1005E00050E0082E02C0559547950A94E2F740FF67
:1005F00009C0E1E0F0E0EC0FFD1FE20FF31F40EF58
:10060000408307C0E1E0F0E0EC0FFD1FE20FF31FB5
:1006100010828F5F883008F3BE016F5F7F4F812F9C
:100620000E943D091F5F103188F228960FB6F8949A
:10063000DEBF0FBECDBFDF91CF911F9108951F93F5
:10064000CF93DF93CDB7DEB728970FB6F894DEBF10
:100650000FBECDBF88230CF45EC0182F0E945A092C
:10066000E12F012E000CFF0BCF010F9669E370E024
:100670000E94FF0CBC01DC01AF54BE4F8C9190E096
:1006800041C0492F50E0282F30E0092E02C0359597
:1006900027950A94E2F720FF0EC06A32710514F420
:1006A00020EF01C02FE0A1E0B0E0AC0FBD1FA40F10
:1006B000B51F2C9326C0212F012E000C330B2B517C
:1006C00031092D303105B0F4DF01A757BE4F2C9111
:1006D00030E0092E02C0359527950A94E2F720FFF5
:1006E00009C0A1E0B0E0AC0FBD1FA40FB51F2FEFF4
:1006F0002C9307C0A1E0B0E0AC0FBD1FA40FB51F45
:100700001C929F5F983008F4BCCFBE016F5F7F4F93
:100710008FE00E943D0928960FB6F894DEBF0FBE09
:10072000CDBFDF91CF911F9108950F931F93CF936A
:10073000DF93CDB7DEB7C058D1090FB6F894DEBF4E
:100740000FBECDBF0E94610980E4E0E1F1E0DE016F
:10075000119601900D928A95E1F780E4E0E5F1E0D1
:10076000DE01AF5BBF4F01900D928A95E1F700E08B
:1007700034C0812F90E0E02FF0E0880F991F880FA0
:10078000991F880F991FA1E0B0E0AC0FBD1FA80F03
:10079000B91FAE0FBF1F2C91DC01A452BD4FAE0F8D
:1007A000BF1F2C93A1E4B0E0AC0FBD1FA80FB91F71
:1007B000AE0FBF1F3C91845E9C4FE80FF91F308342
:1007C000277029F04CE3612F802F0E942E091F5FB4
:1007D00001C010E0183068F20F5F0830D0F383E0FA
:1007E00080935D038093DB0281E080935C03C058BB
:1007F000DF4F0FB6F894DEBF0FBECDBFDF91CF91B4
:100800001F910F91089580915C0391E0981B909344
:100810005C039923E9F06091DB02E7E0F0E0E61B7E
:10082000F10967FDF39580915D03EE0FFF1FEE0F59
:10083000FF1FEE0FFF1FE45EFC4FE80FF11D87FD69
:10084000FA952081222324F44AE60E94350908956E
:10085000992341F04FEF6091DB0280915D030E948C
:10086000350908956091DB02262F062E000C330B0C
:10087000E7E0F0E0E21BF30B80915D03482F082EC8
:10088000000C550BEE0FFF1FEE0FFF1FEE0FFF1FAB
:10089000E45EFC4FE40FF51F908199233CF4792F1F
:1008A000777021F04FE00E94350908953195219528
:1008B0003109220F331F220F331F220F331F245EF3
:1008C0003C4FF901E40FF51F2081222334F4977087
:1008D00021F440EF0E943509089540E00E94350957
:1008E0000895CF93DF93D82FC62F6091DB02E7E006
:1008F000F0E0E61BF10967FDF39580915D03EE0FD3
:10090000FF1FEE0FFF1FEE0FFF1FE45EFC4FE80F0F
:10091000F11D87FDFA959081292F99233CF4392FF9
:10092000377021F04FE00E9435090BC0222334F4C8
:10093000977021F440EF0E94350903C040E00E9407
:10094000350980915D038D0F80935D036091DB021B
:100950006C0F6093DB02883014F010925D0380917D
:100960005D0388231CF487E080935D03683014F0F6
:100970001092DB028091DB0288231CF487E08093D5
:10098000DB02DF91CF9108950F931F93CF93DF93F5
:10099000CDB7DEB7E2970FB6F894DEBF0FBECDBF7E
:1009A000962F917060FF0EC061FD0CC062FD0AC001
:1009B00098E0EAEEF1E0DE01119601900D929A9531
:1009C000E1F74BC0362F327061FF0EC091110CC0A1
:1009D00062FD0AC098E0E2EFF1E0DE0111960190BD
:1009E0000D929A95E1F739C0262F237061F062FDD0
:1009F0000AC09AE0EAEFF1E0DE01119601900D9253
:100A00009A95E1F72AC062FF0EC091110CC0311116
:100A10000AC098E0E4E0F2E0DE01119601900D9248
:100A20009A95E1F71AC0962F957061F031110AC0BE
:100A300099E0ECE0F2E0DE01119601900D929A95BA
:100A4000E1F70BC0667049F09AE0E5E1F2E0DE0103
:100A5000119601900D929A95E1F7813071F5CE01D2
:100A600001969F938F938FE192E09F938F938E01D6
:100A70000B5E1F4F1F930F930E94120EF8010190FF
:100A80000020E9F73197E01BF10B6091010170E064
:100A900080E590E08E1B9F0B0E947C0CC8010E9499
:100AA000E20D809101018F5F809301010F900F9003
:100AB0000F900F900F900F9024C0CE0101969F933E
:100AC0008F938EE292E09F938F938E010B5E1F4F68
:100AD0001F930F930E94120E6091000170E084E159
:100AE00090E00E947C0CC8010E94E20D8091000100
:100AF0008F5F809300010F900F900F900F900F90D9
:100B00000F90E2960FB6F894DEBF0FBECDBFDF9117
:100B1000CF911F910F9108959F92AF92BF92CF9264
:100B2000DF92EF92FF920F931F93CF93DF93F62EF6
:100B3000D42FE22E27E7E21220C01AC0F80128E0E5
:100B4000D202E00DF11D1124EF0DF11DF7FCFA9515
:100B50002081322F377021F0222314F09F5F05C0CF
:100B600030E02F77232B09F471C0CF5FD15002C042
:100B7000C0E090E0DD2314F769C093E7E91220C0DC
:100B80001AC0F80128E0D202E00DF11D1124EF0D8A
:100B9000F11DF7FCFA952081322F377021F02223C6
:100BA00014F09F5F05C030E02F77232B09F44EC06F
:100BB000CF5FDF5F02C0C0E090E0D83014F346C0E2
:100BC00091E6E9121FC019C0F80128E0D202E00D39
:100BD000F11D1124EF0DF11DF7FCFA952081322F44
:100BE000377021F0222314F09F5F04C030E02F778C
:100BF000232B61F1CF5FFA9402C0C0E090E01F1494
:100C00001CF324C094E6E916E1F0C0E090E01EC0B9
:100C1000F80128E0D202E00DF11D1124EF0DF11DC5
:100C2000F7FCFA952081322F377021F0222314F03F
:100C30009F5F04C030E02F77232B41F0CF5FF39408
:100C400002C0C0E090E027E02F1514F7911113C106
:100C50009C2E97E7E9122DC021E02D0FC15026C030
:100C6000F80198E02902E00DF11D11244F2D0F2C01
:100C7000000C550BE40FF51F9081906490832F5F5B
:100C8000C150A2F4022E000C330B2150304E220F23
:100C9000331F220F331F220F331F020F131FF801C0
:100CA000E40FF51F60810E94C404E5C0CC23C4F6A4
:100CB000E2C023E7E2125DC058C06091D40270E048
:100CC0008EE190E00E947C0C8091D4028F5F809333
:100CD000D4021F92EF928C2F0C2E000C990B9F9335
:100CE000CF93AD2E0D2E000CBB08BF92DF93CF2CFF
:100CF0000F2C000CDD08DF92FF928DE392E09F93B2
:100D00008F930E94A60DAA0CBB1CAA0CBB1CAA0C9C
:100D1000BB1CA00EB11EF501EC0DFD1D8081806491
:100D20008083D150C1508DB79EB70A960FB6F89404
:100D30009EBF0FBE8DBFCC23C4F46091D40270E07F
:100D40008EE190E00E947C0C8091D4028F5F8093B2
:100D5000D4021F929F928DE792E09F938F930E94FF
:100D6000A60D0F900F900F900F90CC230CF0A5CFF5
:100D700082C091E6E9125DC058C06091D40270E073
:100D80008EE190E00E947C0C8091D4028F5F809372
:100D9000D402AF2C0F2C000CBB081F92EF928C2FAB
:100DA0000C2E000C990B9F93CF93CD2E0D2E000C83
:100DB000DD08DF92DF93BF92FF928DE392E09F9375
:100DC0008F930E94A60DCC0CDD1CCC0CDD1CCC0C32
:100DD000DD1CC00ED11EF601EA0DFB1D8081806472
:100DE0008083F394C1508DB79EB70A960FB6F894DE
:100DF0009EBF0FBE8DBFCC23C4F46091D40270E0BF
:100E00008EE190E00E947C0C8091D4028F5F8093F1
:100E1000D4021F929F928DE792E09F938F930E943E
:100E2000A60D0F900F900F900F90CC230CF0A5CF34
:100E300022C094E6E9121FC01CC0F80128E0D202CB
:100E4000E00DF11D1124DF01AF0DB11DF7FCBA95C6
:100E50009C9190649C93FA94C1505AF42F2DFF0CEE
:100E6000330B2F5F3F4FE20FF31F60810E94C404DA
:100E700002C0CC2314F7DF91CF911F910F91FF9007
:100E8000EF90DF90CF90BF90AF909F900895DF924A
:100E9000EF92FF920F931F93CF93DF93D82E7B0196
:100EA000D7E064C04D2F0D2E000C550BCA01880FE2
:100EB000991F880F991F880F991F8E0D9F1D2C2F2A
:100EC0000C2E000C330BFC01E20FF31F608163FF5B
:100ED00046C066FD44C064FF1BC02150310942F08A
:100EE000FC01E20FF31F808190E08F77892B41F4A2
:100EF000870124E64D2F6C2F8D2D0E948C052FC06D
:100F0000870121E64D2F6C2F8D2D0E948C0527C067
:100F10008D2F0D2E000C990B019792F04150504EE1
:100F2000440F551F440F551F440F551F4E0D5F1D95
:100F3000FA01E20FF31F808190E08F77892B41F453
:100F4000870123E74D2F6C2F8D2D0E948C0507C044
:100F5000870127E74D2F6C2F8D2D0E948C05CF5FC9
:100F600001C0C0E0C8300CF49DCFD150DD23CCF7D8
:100F7000DF91CF911F910F91FF90EF90DF90089537
:100F80000F931F93CF93DF9367E048C0C62F062EC1
:100F9000000CDD0B082F082E000C110BFE01EE0FCC
:100FA000FF1FEE0FFF1FEE0FFF1FE452FD4FE00F7C
:100FB000F11F908199235CF19923C1F09770B1F0F2
:100FC0004FE00E942E09CC0FDD1FCC0FDD1FCC0F90
:100FD000DD1FC452DD4FC00FD11F88818068888318
:100FE0006CED72E080E00E9447071AC040EF0E945B
:100FF0002E09CC0FDD1FCC0FDD1FCC0FDD1FC4521F
:10100000DD4FC00FD11F88818068888309C08F5F42
:1010100001C080E088300CF4B9CF61506623CCF772
:10102000DF91CF911F910F910895CF93DF93CDB7AB
:10103000DEB764970FB6F894DEBF0FBECDBF6091E8
:10104000DB0227E030E0261B310967FD33958091F4
:101050005D03E82F082E000CFF0BD901AA0FBB1F60
:10106000AA0FBB1FAA0FBB1FA45EBC4FAE0FBF1FB2
:101070004C9144230CF04BC061E070E080E090E0C4
:101080000E947C0C2DE0E0E9F1E0CE010196DC014C
:1010900001900D922A95E1F7FE013E9627E0DF01CF
:1010A0001D922A95E9F7FC0101900020E9F731979C
:1010B000E81B80E00AC0A1E0B0E0AC0FBD1FAE0F9E
:1010C000B11D91E29C938F5FEF5F9091D5028917DC
:1010D00010F4E33180F3CE0101969C012E0F311DF7
:1010E000F90110829F938F938AE392E09F938F93ED
:1010F0000E94A60D8091D5020F900F900F900F9037
:10110000833008F045C08F5F8093D50241C04423EF
:10111000D1F0C901880F991F880F991F880F991F57
:10112000845E9C4FE80FF91F406840836CE173E0D8
:1011300081E00E9447074FE06091DB0280915D03F0
:101140000E9435090FC0220F331F220F331F220FB9
:10115000331F245E3C4FE20FF31F4068408340EF93
:101160000E9435098091D502882381F060E070E00B
:1011700080E090E00E947C0C89EA92E09F938F933C
:101180000E94A60D1092D5020F900F900E94C007EA
:1011900064960FB6F894DEBF0FBECDBFDF91CF913E
:1011A000089537E018C088E03802F0011124E452B5
:1011B000FD4FE90FF11D97FDFA952081822F877071
:1011C00021F0822F807426FF25C09F5F01C090E030
:1011D00098304CF331503323D4F737E018C088E00F
:1011E0003802F0011124E45EFC4FE90FF11D97FD78
:1011F000FA952081822F877021F0822F807426FF3C
:1012000009C09F5F01C090E098304CF33150332308
:10121000D4F781E0089580E80E944A0C08951F9356
:10122000CF93DF938031B0F46830A0F4142FC62F31
:10123000D82F81E00E94760C6C2F677080E1689F48
:10124000900111248D2F8F70822B0E94760C812F9C
:101250000E94760CDF91CF911F910895883020F481
:10126000683010F40E940F090895883028F468301F
:1012700018F4885F0E940F0908950F931F93CF936E
:101280008031A0F48B01C82F83E00E94760C8C2F54
:101290008F700E94760CC0E007C0F801EC0FF11DC2
:1012A00080810E94760CCF5FC830B8F3CF911F9138
:1012B0000F91089584E00E94760C82E00E94760CE3
:1012C00008958FE00E94760C08950E940B090E94F9
:1012D000590240E060E07BE480E090E00E94620B15
:1012E0000E94AC0C0E94F70C0E94FC0C78940895AC
:1012F0008F929F92AF92BF92CF92DF92EF92FF9226
:10130000CF930E948D0C0E94A30C85E20E94960C44
:1013100064E070E08AE090E00E947C0C86EF93E04D
:101320009F938F930E94BC0D65E070E08AE090E08F
:101330000E947C0C84E993E09F938F930E94BC0DE4
:1013400066E070E08AE090E00E947C0C82E393E02B
:101350009F938F930E94BC0D67E070E08AE090E05D
:101360000E947C0C80ED92E09F938F930E94BC0DB5
:1013700068E070E08AE090E00E947C0C8EE692E0EB
:101380009F938F930E94BC0D69E070E08AE090E02B
:101390000E947C0C8CE092E09F938F930E94BC0D86
:1013A0006AE070E08AE090E00E947C0C8AEA91E0BA
:1013B0009F938F930E94BC0D6BE070E08AE090E0F9
:1013C0000E947C0C88E491E09F938F930E94BC0D57
:1013D0006CE070E08AE090E00E947C0C86EE90E089
:1013E0009F938F930E94BC0D6EE070E08AE090E0C6
:1013F0000E947C0C84EB90E09F938F930E94BC0D25
:101400000E94D7020E94C20C4B015C018DB79EB7AF
:1014100044960FB6F8949EBF0FBE8DBFC4EF02C0B6
:10142000460157010E94A90B882339F0809172046C
:10143000909173040E94680D01C08FEF8337F9F01B
:101440008335E9F00E9469028F3FC9F40E94C20C03
:101450006B017C01DC01CB0188199909AA09BB0940
:10146000893C9105A105B105E8F28C2F0E941F036C
:101470008C2FCF5FCA33A4F2C2ECC80FD1CFCF916B
:10148000FF90EF90DF90CF90BF90AF909F908F90A4
:1014900008950E948D0C0E9495030E9469020E948B
:1014A000B00B08958F929F92AF92BF92CF92DF922E
:1014B000EF92FF92CF93DF930E94C20C4B015C012D
:1014C00051C00E946902D82F0E94A90B882341F0C5
:1014D00080917204909173040E94680DC82F01C01E
:1014E000CFEFDD2321F0C43411F0C43621F460E0E5
:1014F00081E00E947104D13021F0C33511F0C3376F
:1015000021F46FEF80E00E947104D23021F0C735E2
:1015100011F0C73721F461E080E00E947104D330FC
:1015200021F0C13411F0C13621F460E08FEF0E9448
:101530007104C63411F0C63611F40E9415080E94D9
:10154000C20C6B017C01D501C40188539F4FAF4F82
:10155000BF4FC816D906EA06FB0620F00E94030416
:10156000460157010E94D108882309F4AACF63E0FD
:1015700070E080E090E00E947C0C82EC92E09F930F
:101580008F930E94A60D0F900F90DF91CF91FF9047
:10159000EF90DF90CF90BF90AF909F908F90089585
:1015A0006EE070E08AE090E00E947C0C8AEA90E0B5
:1015B0009F938F930E94BC0D6FE070E08AE090E0F3
:1015C0000E947C0C8CE790E09F938F930E94BC0D4F
:1015D0000F900F900F900F900E9469028F3FE1F3E0
:1015E00008950E9465090E9478090E94490A0E9494
:1015F000520A0E94D00AF9CFCF93C82F8A3019F42B
:101600008DE00E94FC0A9FB7907802C0992329F1CF
:1016100080915F038F3FD1F3F894E0915E0381E006
:101620008E0F80935E03F0E0E05AFC4FC083809100
:101630005F038F5F80935F0380915E038F3F11F4A0
:1016400010925E03E1ECF0E0808180628083992358
:1016500039F0789480E090E005C081E090E002C02D
:1016600080E090E0CF910895809171048823E1F3A8
:101670002FB72078F89480915F043091710490E046
:10168000831B91095AF4E0915F0480917104F0E0AA
:10169000E81BF109E059FB4F80810AC0E0915F042B
:1016A00080917104F0E0E81BF109E05AFB4F808162
:1016B00090917104915090937104222309F07894D1
:1016C00090E0089510925E0310925F0310925F0401
:1016D00010927104109270044093D602DC01CB0189
:1016E000880F991FAA1FBB1F880F991FAA1FBB1F16
:1016F0009C01AD01220F331F441F551F60E072E1B2
:101700008AE790E00E94130DBA01A9014F5F5F4F75
:101710006F4F7F4FDB01CA011AF40196A11DB11D65
:10172000B595A7959795879501979093C500809358
:10173000C400E1ECF0E088E18083808180688083F0
:10174000E2E7F4E082E091E09383828391838083F7
:1017500008959091710481E0911101C080E0089595
:1017600010925F041092710408951F920F920FB6A9
:101770000F9211242F938F939F93EF93FF93809158
:101780005F03882329F180915E0320915F0390E03D
:10179000821B91095AF4E0915E0380915F03F0E0AF
:1017A000E81BF109E15AFB4F90810AC0E0915E030A
:1017B00080915F03F0E0E81BF109E05AFC4F908153
:1017C00080915F03815080935F039093C60005C0B2
:1017D000E1ECF0E080818F7D8083FF91EF919F911C
:1017E0008F912F910F900FBE0F901F9018951F9201
:1017F0000F920FB60F9211242F933F934F935F9345
:101800006F937F938F939F93AF93BF93CF93EF93F8
:10181000FF93C091C6008091D602882349F0809141
:101820005F038F3F29F060E070E08C2F0E94FC0A7C
:1018300080917104803120F081E08093700418C0A1
:10184000CD3009F4CAE0E0915F0481E08E0F80930F
:101850005F04F0E0E05AFB4FC083809171048F5F1A
:101860008093710480915F04803111F410925F04C1
:10187000FF91EF91CF91BF91AF919F918F917F9108
:101880006F915F914F913F912F910F900FBE0F90ED
:101890001F90189594B1906B94B995B1906195B9DA
:1018A00090E59CBD883021F0803211F0823019F42F
:1018B00091E09DBD01C01DBC803269F028F48830E4
:1018C00071F0803161F00EC0803429F0803851F41D
:1018D0008CB581608CBD8CB582608CBD03C08CB52D
:1018E00081608CBD85B18F7E85B908958EBD0DB4A4
:1018F00007FEFDCF8EB508959F938F937F936F93CF
:101900008AE694E09F938F930E94BC0D0F900F90F6
:101910000F900F900F900F90089585E694E09F939D
:101920008F930E94BC0D0F900F9008951F928F937C
:101930008FE594E09F938F930E94BC0D0F900F90C2
:101940000F900F90089588E594E09F938F930E94E5
:10195000BC0D0F900F9008951092D7021092D802EC
:101960001092D9021092DA0216BC8CE787BD92E081
:1019700094BD83E085BDEEE6F0E0808182608083E7
:1019800095BB08958FB7282F2078F8946091D702DF
:101990007091D8028091D9029091DA02222309F045
:1019A000789408951F920F920FB60F9211248F937F
:1019B0009F93AF93BF938091D7029091D802A0914B
:1019C000D902B091DA020196A11DB11D8093D70210
:1019D0009093D802A093D902B093DA02BF91AF914D
:1019E0009F918F910F900FBE0F901F90189510929E
:1019F00085001092840008951092B200089597FB1C
:101A0000072E16F4009407D077FD09D00E94320DFE
:101A100007FC05D03EF4909581959F4F08957095F1
:101A200061957F4F0895052E97FB1EF400940E9448
:101A30002A0D57FD07D00E94460D07FC03D04EF437
:101A40000C942A0D50954095309521953F4F4F4F5E
:101A50005F4F089590958095709561957F4F8F4F5A
:101A60009F4F0895AA1BBB1B51E107C0AA1FBB1FB4
:101A7000A617B70710F0A61BB70B881F991F5A951A
:101A8000A9F780959095BC01CD010895A1E21A2E89
:101A9000AA1BBB1BFD010DC0AA1FBB1FEE1FFF1F12
:101AA000A217B307E407F50720F0A21BB30BE40B62
:101AB000F50B661F771F881F991F1A9469F76095A9
:101AC0007095809590959B01AC01BD01CF01089563
:101AD000CF93DF93EC012B8120FF33C026FF0AC098
:101AE0002F7B2B838E819F8101969F838E838A819A
:101AF00090E029C022FF0FC0E881F9818081082E83
:101B0000000C990B009719F420622B831AC03196B0
:101B1000F983E8830EC0EA85FB85099597FF09C024
:101B20002B81019611F080E201C080E1822B8B8332
:101B300008C02E813F812F5F3F4F3F832E8399271F
:101B400002C08FEF9FEFDF91CF910895A0E0B0E04A
:101B5000ECEAFDE00C94D510AE014B5F5F4FFA014B
:101B600061917191AF0180917404909175040E940C
:101B7000340EE2E00C94F110A0E0B0E0E2ECFDE005
:101B80000C94D310AE01495F5F4FDA016D917D91E6
:101B9000AD0102E714E0F80182819381DC01139624
:101BA0002C911397286013962C930E94340ED80121
:101BB0001296ED91FC9113972381277F2383E4E014
:101BC0000C94EF100F931F93CF93DF93E091740465
:101BD000F0917504238121FF1BC08C01D0E0C0E08F
:101BE000F80181918F016091740470917504DB019B
:101BF0001896ED91FC911997882331F00995892B5E
:101C000079F3DFEFCFEFECCF8AE00995892B19F05C
:101C10008FEF9FEF02C08D2F9C2FDF91CF911F91EF
:101C20000F910895AEE0B0E0E8E1FEE00C94D3102F
:101C30000D891E8986E08C831A8309838FEF9FE7C5
:101C40009E838D83AE01475E5F4F6F89788DCE0195
:101C500001960E94340EEF81F885E00FF11F10828B
:101C60002E96E4E00C94EF10ABE0B0E0EAE3FEE087
:101C70000C94C5106C017B018A01FC01178216824D
:101C8000838181FFCCC1CE0101963C01F601938195
:101C9000F70193FD859193FF81917F01882309F4DA
:101CA000BAC1853239F493FD859193FF81917F010B
:101CB000853229F4B60190E00E942B10E7CF912CD9
:101CC000212C312CFFE1F315D8F08B3279F038F468
:101CD000803279F08332A1F4232D20611DC08D3232
:101CE00061F0803369F4232D216016C0832D82605A
:101CF000382EE32DE4603E2E2AC0F32DF8601DC07F
:101D000037FC2DC020ED280F2A3040F08E32B9F478
:101D100036FC81C1232D2064322E19C036FE06C048
:101D20008AE0989E200D1124922E11C0EAE02E9E8A
:101D3000200D1124222EF32DF0623F2E08C08C3688
:101D400021F4832D8068382E02C0883641F4F701D3
:101D500093FD859193FF81917F018111B3CF982FDE
:101D60009F7D9554933028F40C5F1F4F9FE3998318
:101D70000DC0833631F0833771F0833509F059C0D7
:101D800021C0F801808189830E5F1F4F88248394CE
:101D9000912C530113C02801F2E04F0E511CF801A1
:101DA000A080B18036FE03C0692D70E002C06FEFE5
:101DB0007FEFC5010E9420104C018201F32DFF77B7
:101DC0003F2E16C0280122E0420E511CF801A080CF
:101DD000B18036FE03C0692D70E002C06FEF7FEF67
:101DE000C5010E9415104C01F32DF0683F2E8201B1
:101DF00033FC1BC0822D90E088169906B0F4B60122
:101E000080E290E00E942B102A94F4CFF50137FC79
:101E1000859137FE81915F01B60190E00E942B1001
:101E200021102A9421E0821A91088114910471F7FB
:101E3000E8C0843611F0893641F5F80137FE07C055
:101E400060817181828193810C5F1F4F08C0608126
:101E50007181072E000C880B990B0E5F1F4FF32D1D
:101E6000FF763F2E97FF09C09095809570956195FC
:101E70007F4F8F4F9F4FF0683F2E2AE030E0A30145
:101E80000E946710882E861845C0853731F4232DAF
:101E90002F7EB22E2AE030E025C0932D997FB92EF7
:101EA0008F36C1F018F4883579F0B5C0803719F055
:101EB000883721F0B0C0E92FE061BE2EB4FE0DC01E
:101EC000FB2DF460BF2E09C034FE0AC0292F266006
:101ED000B22E06C028E030E005C020E130E002C0AC
:101EE00020E132E0F801B7FE07C060817181828194
:101EF00093810C5F1F4F06C06081718180E090E08C
:101F00000E5F1F4FA3010E946710882E8618FB2DBD
:101F1000FF773F2E36FE0DC0232D2E7FA22E891473
:101F200058F434FE0BC032FC09C0832D8E7EA82EDF
:101F300005C0B82CA32C03C0B82C01C0B92CA4FE3A
:101F40000FC0FE01E80DF11D8081803321F49A2D30
:101F5000997EA92E09C0A2FE06C0B394B39404C012
:101F60008A2D867809F0B394A3FC11C0A0FE06C0A8
:101F7000B21488F4280C922C9B180EC0B21460F492
:101F8000B60180E290E00E942B10B394F7CFB21418
:101F900018F42B1802C0982C212CA4FE10C0B601F6
:101FA00080E390E00E942B10A2FE17C0A1FC03C0AA
:101FB00088E790E002C088E590E0B6010CC08A2D69
:101FC000867859F0A1FE02C08BE201C080E2A7FC36
:101FD0008DE2B60190E00E942B10891438F4B6010E
:101FE00080E390E00E942B109A94F7CF8A94F3013B
:101FF000E80DF11D8081B60190E00E942B10811048
:10200000F5CF222009F442CEB60180E290E00E9492
:102010002B102A94F6CFF6018681978102C08FEFAC
:102020009FEF2B96E2E10C94E110FC0105906150CA
:1020300070400110D8F7809590958E0F9F1F0895DE
:10204000FC016150704001900110D8F78095909587
:102050008E0F9F1F08950F931F93CF93DF93FB0164
:10206000238121FD03C08FEF9FEF2CC022FF16C0FC
:1020700046815781248135814217530744F4A0815A
:10208000B1819D012F5F3F4F318320838C93268147
:1020900037812F5F3F4F3783268314C08B01EC01BC
:1020A000FB010084F185E02D0995892BE1F6D8012B
:1020B00016968D919C911797019617969C938E93E7
:1020C0001697CE01DF91CF911F910F910895FA01DC
:1020D000AA27283051F1203181F1E8946F936E7F67
:1020E0006E5F7F4F8F4F9F4FAF4FB1E03ED0B4E058
:1020F0003CD0670F781F891F9A1FA11D680F791F99
:102100008A1F911DA11D6A0F711D811D911DA11DA9
:1021100020D009F468943F912AE0269F11243019B9
:10212000305D3193DEF6CF010895462F4770405D54
:102130004193B3E00FD0C9F7F6CF462F4F70405D03
:102140004A3318F0495D31FD4052419302D0A9F75E
:10215000EACFB4E0A6959795879577956795BA9558
:10216000C9F700976105710508959B01AC010A2E1E
:1021700006945795479537952795BA95C9F7620FF5
:10218000731F841F951FA01D08952F923F924F9299
:102190005F926F927F928F929F92AF92BF92CF92F7
:1021A000DF92EF92FF920F931F93CF93DF93CDB700
:1021B000DEB7CA1BDB0B0FB6F894DEBF0FBECDBF78
:1021C00009942A88398848885F846E847D848C8449
:1021D0009B84AA84B984C884DF80EE80FD800C8152
:1021E0001B81AA81B981CE0FD11D0FB6F894DEBF35
:0C21F0000FBECDBFED010895F894FFCFA5
:1021FC0002020000000300000000FC0A340B000087
:10220C00000000000000000000191111111119004C
:10221C00000000000000000000000D00000E000097
:10222C000B000D00000E000C030000000000000469
:10223C000B001A12121A000C000000000000000023
:10224C0000000000000000000B001A12121A000C13
:10225C0003000000000000040B000D00000E000C39
:10226C0000000D00000E0000000000000000000047
:10227C0000191111111119000000000000000000DC
:10228C00496E76616C6964206D6F766500000000A4
:10229C00000000000000160602060606363606365A
:1022AC0000FE92926C000C52523C02207E20207E4A
:1022BC002000FE003C52523400122A2A2400FE2038
:1022CC00201E005E003F2424180000101E2B390D28
:1022DC003929394949F94B3E0000436172726965ED
:1022EC007200437275697365720044657374726F22
:1022FC00796572004672696761746500436F727626
:10230C0065747465005375626D6172696E65005910
:10231C006F752053756E6B204D7920257300492005
:10232C0053756E6B20596F75722025730053696E4F
:10233C006B696E6720736869702061742028436F25
:10234C006C756D6E2025642C20526F7720256429C6
:10235C002C206C656E677468202564206469726536
:10236C006374696F6E2025632E0A200A0046696E1D
:10237C0069736865642073696E6B696E6720736836
:10238C006970206F66206F726967696E616C206C72
:10239C00656E677468202564002020202020202092
:1023AC002020202020202020202020202020202021
:0E23BC00200047616D65206F7665722100007C
:00000001FF
